S0110000546F696C65744C65642E737265638D
S113000009C021C0CCC01FC01EC01DC01CC01BC065
S11300101AC019C011241FBECFE9CDBF10E0A0E65D
S1130020B0E0EAE2F2E002C005900D92A236B10718
S1130030D9F720E0A2E6B0E001C01D92A436B207D1
S1130040E1F7D0D0F0C0DCCF83E28FBD88E083BF7E
S113005083B7836083BF83EC99E00197F1F700C015
S1130060000008951FBC13BE83EC99E00197F1F7DB
S113007000C00000089580916200909163001816FA
S113008019069CF480E090E02FE33DE043E021502A
S113009030404040E1F700C000000196209162002A
S11300A030916300821793077CF30895CDDF80912C
S11300B0600089BD8091600090E01816190654F420
S11300C089BD0197E5EDF6E03197F1F700C0000036
S11300D00097B1F719BCC198C5DF0895B5DF19BC05
S11300E080916000882381F080E090E089BD0196D2
S11300F0E5EDF6E03197F1F700C0000020916000D3
S113010030E08217930794F38FEF89BDC19AAADF79
S1130110089583EC99E00197F1F700C00000DEDF59
S1130120AADFC4DF87EA91E60197F1F700C0000077
S1130130089585B7806285BF889585B78F7D85BF13
S11301400895BC9AC49A88E084BB83E287B984EC9E
S113015086B9349BFECF85B18D3D38F083E090E0C5
S113016090936300809362000CC085B1882349F0AA
S113017025B18FEF90E0821B9109909363008093E7
S1130180620016B817B814BA87B387BB88B388BBA4
S113019083EC99E00197F1F700C0000008951F92E5
S11301A00F920FB60F9211242F933F934F935F93A7
S11301B06F937F938F939F93AF93BF93EF93FF932B
S11301C0A8DFFF91EF91BF91AF919F918F917F91A4
S11301D06F915F914F913F912F910F900FBE0F90B0
S11301E01F90189582E087BBC1E0C8BB2DDF8FEF5D
S11301F086BF85B7877E806185BF80E28BBFC5BB24
S1130200A0DF789483EC99E00197F1F700C0000037
S1130210B09B07C087EA91E60197F1F700C00000A0
S10D0220F7CF87DFF5CFF894FFCF86
S105022AFA00D4
S9030000FC
